{
  "contractName": "ContentStore",
  "abi": [
    {
      "payable": true,
      "stateMutability": "payable",
      "type": "fallback"
    },
    {
      "constant": false,
      "inputs": [
        {
          "name": "user",
          "type": "address"
        },
        {
          "name": "key",
          "type": "bytes32"
        },
        {
          "name": "value",
          "type": "bytes32"
        }
      ],
      "name": "saveData",
      "outputs": [
        {
          "name": "",
          "type": "bool"
        }
      ],
      "payable": true,
      "stateMutability": "payable",
      "type": "function"
    },
    {
      "constant": true,
      "inputs": [
        {
          "name": "user",
          "type": "address"
        },
        {
          "name": "key",
          "type": "bytes32"
        }
      ],
      "name": "getData",
      "outputs": [
        {
          "name": "",
          "type": "bytes32"
        }
      ],
      "payable": false,
      "stateMutability": "view",
      "type": "function"
    }
  ],
  "bytecode": "0x6060604052341561000f57600080fd5b61027c8061001e6000396000f30060606040526004361061004c576000357c0100000000000000000000000000000000000000000000000000000000900463ffffffff1680638a03c6b71461004e5780638b270b93146100ae575b005b610094600480803573ffffffffffffffffffffffffffffffffffffffff169060200190919080356000191690602001909190803560001916906020019091905050610110565b604051808215151515815260200191505060405180910390f35b34156100b957600080fd5b6100f2600480803573ffffffffffffffffffffffffffffffffffffffff169060200190919080356000191690602001909190505061017d565b60405180826000191660001916815260200191505060405180910390f35b6000816000808673ffffffffffffffffffffffffffffffffffffffff1673ffffffffffffffffffffffffffffffffffffffff168152602001908152602001600020600085600019166000191681526020019081526020016000208160001916905550600190509392505050565b600080600102600019166000808573ffffffffffffffffffffffffffffffffffffffff1673ffffffffffffffffffffffffffffffffffffffff168152602001908152602001600020600084600019166000191681526020019081526020016000205460001916141515156101f057600080fd5b6000808473ffffffffffffffffffffffffffffffffffffffff1673ffffffffffffffffffffffffffffffffffffffff16815260200190815260200160002060008360001916600019168152602001908152602001600020549050929150505600a165627a7a7230582087c206b8a010d939226390d5b7d5e09f30e1547727338d9158d24b709e9069e40029",
  "source": "pragma solidity ^0.4.2;\n\ncontract ContentStore {\n    mapping(address => mapping(bytes32 => bytes32)) private store;\n\n    function saveData(address user, bytes32 key, bytes32 value)\n    public\n    payable\n    returns(bool) {\n        //Save the shard data to the correspoding user's record\n\n        store[user][key] = value;\n        return true;\n    }\n\n    function getData(address user, bytes32 key) public view returns(bytes32) {\n\n        require(store[user][key] != bytes32(0));\n        \n        return store[user][key];\n    }\n\n    function() public payable {\n\n    }\n}",
  "sourcePath": "/home/sharath/Projectz/Blockchain/Passwor-D-app/contracts/ContentStore.sol",
  "compiler": {
    "name": "solc",
    "version": "0.4.21+commit.dfe3193c.Emscripten.clang"
  },
  "schemaVersion": "2.0.0",
  "updatedAt": "2018-04-20T20:41:24.950Z"
}