{
  "contractName": "ContentLocator",
  "abi": [
    {
      "payable": true,
      "stateMutability": "payable",
      "type": "fallback"
    },
    {
      "constant": false,
      "inputs": [
        {
          "name": "locs",
          "type": "address[]"
        }
      ],
      "name": "addLocations",
      "outputs": [
        {
          "name": "",
          "type": "bool"
        }
      ],
      "payable": true,
      "stateMutability": "payable",
      "type": "function"
    },
    {
      "constant": false,
      "inputs": [
        {
          "name": "keys",
          "type": "bytes32[1000]"
        },
        {
          "name": "values",
          "type": "bytes32[1000]"
        },
        {
          "name": "keyCount",
          "type": "uint256"
        }
      ],
      "name": "shardContent",
      "outputs": [
        {
          "name": "",
          "type": "bool"
        }
      ],
      "payable": true,
      "stateMutability": "payable",
      "type": "function"
    },
    {
      "constant": false,
      "inputs": [],
      "name": "getData",
      "outputs": [
        {
          "name": "keys",
          "type": "bytes32[1000]"
        },
        {
          "name": "values",
          "type": "bytes32[1000]"
        },
        {
          "name": "keyCount",
          "type": "uint256"
        }
      ],
      "payable": true,
      "stateMutability": "payable",
      "type": "function"
    },
    {
      "constant": true,
      "inputs": [],
      "name": "getLocationsCount",
      "outputs": [
        {
          "name": "",
          "type": "uint256"
        }
      ],
      "payable": false,
      "stateMutability": "view",
      "type": "function"
    },
    {
      "constant": true,
      "inputs": [],
      "name": "getLocatorLength",
      "outputs": [
        {
          "name": "",
          "type": "uint256"
        }
      ],
      "payable": false,
      "stateMutability": "view",
      "type": "function"
    }
  ],
  "bytecode": "0x6060604052341561000f57600080fd5b610a948061001e6000396000f30060606040526004361061006d576000357c0100000000000000000000000000000000000000000000000000000000900463ffffffff1680633bc5de301461006f5780633f068212146100ed578063629f9450146101545780639da94afb1461017d578063ce8244bf1461020b575b005b610077610234565b60405180846103e860200280838360005b838110156100a3578082015181840152602081019050610088565b50505050905001836103e860200280838360005b838110156100d25780820151818401526020810190506100b7565b50505050905001828152602001935050505060405180910390f35b61013a60048080359060200190820180359060200190808060200260200160405190810160405280939291908181526020018383602002808284378201915050505050509190505061052d565b604051808215151515815260200191505060405180910390f35b341561015f57600080fd5b61016761061d565b6040518082815260200191505060405180910390f35b6101f160048080617d0001906103e88060200260405190810160405280929190826103e8602002808284378201915050505050919080617d0001906103e88060200260405190810160405280929190826103e86020028082843782019150505050509190803590602001909190505061062a565b604051808215151515815260200191505060405180910390f35b341561021657600080fd5b61021e61094d565b6040518082815260200191505060405180910390f35b61023c610999565b610244610999565b6000806000806000803373ffffffffffffffffffffffffffffffffffffffff1673ffffffffffffffffffffffffffffffffffffffff168152602001908152602001600020600201541415151561029957600080fd5b6000803373ffffffffffffffffffffffffffffffffffffffff1673ffffffffffffffffffffffffffffffffffffffff168152602001908152602001600020600201549250600091505b6000803373ffffffffffffffffffffffffffffffffffffffff1673ffffffffffffffffffffffffffffffffffffffff16815260200190815260200160002060020154821015610526576000803373ffffffffffffffffffffffffffffffffffffffff1673ffffffffffffffffffffffffffffffffffffffff1681526020019081526020016000206000018281548110151561037957fe5b90600052602060002090015485836103e88110151561039457fe5b602002019060001916908160001916815250506000803373ffffffffffffffffffffffffffffffffffffffff1673ffffffffffffffffffffffffffffffffffffffff168152602001908152602001600020600101828154811015156103f557fe5b906000526020600020900160009054906101000a900473ffffffffffffffffffffffffffffffffffffffff1690508073ffffffffffffffffffffffffffffffffffffffff16638b270b933387856103e88110151561044f57fe5b60200201516040518363ffffffff167c0100000000000000000000000000000000000000000000000000000000028152600401808373ffffffffffffffffffffffffffffffffffffffff1673ffffffffffffffffffffffffffffffffffffffff168152602001826000191660001916815260200192505050602060405180830381600087803b15156104e057600080fd5b5af115156104ed57600080fd5b5050506040518051905084836103e88110151561050657fe5b6020020190600019169081600019168152505081806001019250506102e2565b5050909192565b600080600090505b825181101561061357600073ffffffffffffffffffffffffffffffffffffffff16838281518110151561056457fe5b9060200190602002015173ffffffffffffffffffffffffffffffffffffffff16141515610606576001805480600101828161059f91906109c6565b9160005260206000209001600085848151811015156105ba57fe5b90602001906020020151909190916101000a81548173ffffffffffffffffffffffffffffffffffffffff021916908373ffffffffffffffffffffffffffffffffffffffff160217905550505b8080600101915050610535565b6001915050919050565b6000600180549050905090565b60008060008060009250846000803373ffffffffffffffffffffffffffffffffffffffff1673ffffffffffffffffffffffffffffffffffffffff16815260200190815260200160002060020181905550600091505b8482101561093f576000803373ffffffffffffffffffffffffffffffffffffffff1673ffffffffffffffffffffffffffffffffffffffff16815260200190815260200160002060000180548060010182816106da91906109f2565b9160005260206000209001600089856103e8811015156106f657fe5b6020020151909190915090600019169055506000803373ffffffffffffffffffffffffffffffffffffffff1673ffffffffffffffffffffffffffffffffffffffff168152602001908152602001600020600101805480600101828161075b91906109c6565b9160005260206000209001600060018681548110151561077757fe5b906000526020600020900160009054906101000a900473ffffffffffffffffffffffffffffffffffffffff16909190916101000a81548173ffffffffffffffffffffffffffffffffffffffff021916908373ffffffffffffffffffffffffffffffffffffffff160217905550506001838154811015156107f357fe5b906000526020600020900160009054906101000a900473ffffffffffffffffffffffffffffffffffffffff1690508073ffffffffffffffffffffffffffffffffffffffff16638a03c6b73389856103e88110151561084d57fe5b602002015189866103e88110151561086157fe5b60200201516040518463ffffffff167c0100000000000000000000000000000000000000000000000000000000028152600401808473ffffffffffffffffffffffffffffffffffffffff1673ffffffffffffffffffffffffffffffffffffffff168152602001836000191660001916815260200182600019166000191681526020019350505050602060405180830381600087803b151561090157600080fd5b5af1151561090e57600080fd5b50505060405180519050506001805490508360010193508310151561093257600092505b818060010192505061067f565b600193505050509392505050565b60008060003373ffffffffffffffffffffffffffffffffffffffff1673ffffffffffffffffffffffffffffffffffffffff16815260200190815260200160002060000180549050905090565b617d00604051908101604052806103e8905b60008019168152602001906001900390816109ab5790505090565b8154818355818115116109ed578183600052602060002091820191016109ec9190610a1e565b5b505050565b815481835581811511610a1957818360005260206000209182019101610a189190610a43565b5b505050565b610a4091905b80821115610a3c576000816000905550600101610a24565b5090565b90565b610a6591905b80821115610a61576000816000905550600101610a49565b5090565b905600a165627a7a72305820a01ab954a38aa1d703dbbf6c4eb0d9d48644b5745450a6e650a083a4149bd5d60029",
  "source": "pragma solidity ^0.4.2;\n\nimport \"./ContentStore.sol\";\n\ncontract ContentLocator {\n    struct KeyAddress {\n        bytes32[] keys;\n        address[] keyLocations;\n        uint keyCount;\n    }\n\n    mapping(address => KeyAddress) private locator;\n\n    address[] private locations;\n\n    function addLocations(address[] locs)\n    public \n    payable\n    returns(bool) {\n        //Copy the input ContentStores to the locations list\n\n        for (uint i = 0; i < locs.length; i++) {\n            if(locs[i]!=address(0)) {\n                locations.push(locs[i]);\n            }\n        }\n\n        return true;\n    }\n\n    function shardContent(bytes32[1000] keys, bytes32[1000] values, uint keyCount)\n    public\n    payable\n    returns (bool) {\n        //Shard the content to multiple smart contracts\n        \n        uint rand = 0;\n\n        locator[msg.sender].keyCount = keyCount;\n\n        for(uint i = 0; i < keyCount; i++) {\n            locator[msg.sender].keys.push(keys[i]);\n            locator[msg.sender].keyLocations.push(locations[rand]);\n\n            ContentStore store = ContentStore(locations[rand]);\n            store.saveData(msg.sender, keys[i], values[i]);\n\n            if(++rand >= locations.length) {\n                rand = 0;\n            }\n        }\n\n        return true;\n    }\n\n    function getData()\n    public\n    payable\n    returns(bytes32[1000] keys, bytes32[1000] values, uint keyCount) {\n        //Gather the shards and return content\n        \n        require(locator[msg.sender].keyCount != 0);\n\n        keyCount = locator[msg.sender].keyCount;\n\n        for(uint i = 0; i < locator[msg.sender].keyCount; i++) {\n            keys[i] = locator[msg.sender].keys[i];\n\n            ContentStore store = ContentStore(locator[msg.sender].keyLocations[i]);\n            values[i] = store.getData(msg.sender, keys[i]);\n        }\n    }\n\n\n    function getLocationsCount() public view returns(uint) {\n        return locations.length;\n    }\n\n    //Test\n    function getLocatorLength() public view returns(uint) {\n        return locator[msg.sender].keys.length;\n    }\n\n    function() public payable {\n\n    }\n}\n",
  "sourcePath": "/home/sharath/Projectz/Blockchain/Passwor-D-app/contracts/ContentLocator.sol",
  "compiler": {
    "name": "solc",
    "version": "0.4.21+commit.dfe3193c.Emscripten.clang"
  },
  "schemaVersion": "2.0.0",
  "updatedAt": "2018-05-02T19:18:47.014Z"
}