{
  "contractName": "ContentStore",
  "abi": [
    {
      "payable": true,
      "stateMutability": "payable",
      "type": "fallback"
    },
    {
      "constant": false,
      "inputs": [
        {
          "name": "user",
          "type": "address"
        },
        {
          "name": "shard",
          "type": "bytes8"
        }
      ],
      "name": "saveData",
      "outputs": [
        {
          "name": "",
          "type": "bool"
        }
      ],
      "payable": true,
      "stateMutability": "payable",
      "type": "function"
    },
    {
      "constant": true,
      "inputs": [
        {
          "name": "user",
          "type": "address"
        }
      ],
      "name": "getData",
      "outputs": [
        {
          "name": "",
          "type": "bytes8"
        }
      ],
      "payable": false,
      "stateMutability": "view",
      "type": "function"
    },
    {
      "constant": false,
      "inputs": [
        {
          "name": "key",
          "type": "bytes32"
        },
        {
          "name": "value",
          "type": "bytes32"
        }
      ],
      "name": "setTest",
      "outputs": [
        {
          "name": "",
          "type": "bool"
        }
      ],
      "payable": true,
      "stateMutability": "payable",
      "type": "function"
    },
    {
      "constant": true,
      "inputs": [
        {
          "name": "key",
          "type": "bytes32"
        }
      ],
      "name": "getTest",
      "outputs": [
        {
          "name": "",
          "type": "bytes32"
        }
      ],
      "payable": false,
      "stateMutability": "view",
      "type": "function"
    }
  ],
  "bytecode": "0x6060604052341561000f57600080fd5b6103ea8061001e6000396000f300606060405260043610610062576000357c0100000000000000000000000000000000000000000000000000000000900463ffffffff16806338266b2214610064578063396a6bd8146100e7578063457db6a214610151578063e66773bd14610194575b005b341561006f57600080fd5b61009b600480803573ffffffffffffffffffffffffffffffffffffffff169060200190919050506101d5565b604051808277ffffffffffffffffffffffffffffffffffffffffffffffff191677ffffffffffffffffffffffffffffffffffffffffffffffff1916815260200191505060405180910390f35b610137600480803573ffffffffffffffffffffffffffffffffffffffff1690602001909190803577ffffffffffffffffffffffffffffffffffffffffffffffff19169060200190919050506102ea565b604051808215151515815260200191505060405180910390f35b341561015c57600080fd5b61017660048080356000191690602001909190505061036d565b60405180826000191660001916815260200191505060405180910390f35b6101bb60048080356000191690602001909190803560001916906020019091905050610392565b604051808215151515815260200191505060405180910390f35b6000807801000000000000000000000000000000000000000000000000026000808473ffffffffffffffffffffffffffffffffffffffff1673ffffffffffffffffffffffffffffffffffffffff16815260200190815260200160002060009054906101000a900478010000000000000000000000000000000000000000000000000277ffffffffffffffffffffffffffffffffffffffffffffffff19161415151561027f57600080fd5b6000808373ffffffffffffffffffffffffffffffffffffffff1673ffffffffffffffffffffffffffffffffffffffff16815260200190815260200160002060009054906101000a90047801000000000000000000000000000000000000000000000000029050919050565b6000816000808573ffffffffffffffffffffffffffffffffffffffff1673ffffffffffffffffffffffffffffffffffffffff16815260200190815260200160002060006101000a81548167ffffffffffffffff02191690837801000000000000000000000000000000000000000000000000900402179055506001905092915050565b6000600160008360001916600019168152602001908152602001600020549050919050565b6000816001600085600019166000191681526020019081526020016000208160001916905550929150505600a165627a7a72305820698ff4a36dbf2ad3870d5ad33582bfb3f6948fbd08b94f6a5ef1f1c7e27666080029",
  "source": "pragma solidity ^0.4.2;\n\ncontract ContentStore {\n    mapping (address => bytes8) private store;\n    mapping (bytes32 => bytes32) private stringTest;\n\n    function saveData(address user, bytes8 shard)\n    public\n    payable\n    returns(bool) {\n        //Save the shard data to the correspoding user's record\n\n        store[user] = shard;\n        return true;\n    }\n\n    function getData(address user) public view returns(bytes8) {\n        require(store[user] != 0x0);\n        return store[user];\n    }\n\n    function setTest(bytes32 key, bytes32 value) public payable returns(bool) {\n        stringTest[key] = value;\n    }\n\n    function getTest(bytes32 key) public view returns(bytes32) {\n        return stringTest[key];\n    }\n\n    // function setTest(int key) public payable returns(bool) {\n    //     storeTest = key;\n    // }\n\n    // function getTest() public view returns(int) {\n    //     return 99;\n    // }\n\n    function() public payable {\n\n    }\n}",
  "sourcePath": "/home/sharath/Projectz/Blockchain/Passwor-D-app/contracts/ContentStore.sol",
  "compiler": {
    "name": "solc",
    "version": "0.4.21+commit.dfe3193c.Emscripten.clang"
  },
  "schemaVersion": "2.0.0",
  "updatedAt": "2018-04-18T18:49:21.848Z"
}