{
  "contractName": "ContentStore",
  "abi": [
    {
      "constant": false,
      "inputs": [
        {
          "name": "user",
          "type": "address"
        },
        {
          "name": "shard",
          "type": "bytes8"
        }
      ],
      "name": "saveData",
      "outputs": [
        {
          "name": "",
          "type": "bool"
        }
      ],
      "payable": false,
      "stateMutability": "nonpayable",
      "type": "function"
    },
    {
      "constant": true,
      "inputs": [
        {
          "name": "user",
          "type": "address"
        }
      ],
      "name": "getData",
      "outputs": [
        {
          "name": "",
          "type": "bytes8"
        }
      ],
      "payable": false,
      "stateMutability": "view",
      "type": "function"
    }
  ],
  "bytecode": "0x6060604052341561000f57600080fd5b61030d8061001e6000396000f30060606040526004361061004c576000357c0100000000000000000000000000000000000000000000000000000000900463ffffffff16806338266b2214610051578063396a6bd8146100d4575b600080fd5b341561005c57600080fd5b610088600480803573ffffffffffffffffffffffffffffffffffffffff16906020019091905050610149565b604051808277ffffffffffffffffffffffffffffffffffffffffffffffff191677ffffffffffffffffffffffffffffffffffffffffffffffff1916815260200191505060405180910390f35b34156100df57600080fd5b61012f600480803573ffffffffffffffffffffffffffffffffffffffff1690602001909190803577ffffffffffffffffffffffffffffffffffffffffffffffff191690602001909190505061025e565b604051808215151515815260200191505060405180910390f35b6000807801000000000000000000000000000000000000000000000000026000808473ffffffffffffffffffffffffffffffffffffffff1673ffffffffffffffffffffffffffffffffffffffff16815260200190815260200160002060009054906101000a900478010000000000000000000000000000000000000000000000000277ffffffffffffffffffffffffffffffffffffffffffffffff1916141515156101f357600080fd5b6000808373ffffffffffffffffffffffffffffffffffffffff1673ffffffffffffffffffffffffffffffffffffffff16815260200190815260200160002060009054906101000a90047801000000000000000000000000000000000000000000000000029050919050565b6000816000808573ffffffffffffffffffffffffffffffffffffffff1673ffffffffffffffffffffffffffffffffffffffff16815260200190815260200160002060006101000a81548167ffffffffffffffff021916908378010000000000000000000000000000000000000000000000009004021790555060019050929150505600a165627a7a723058204e16d3b588128ac8eb34d6690bb30292bba39476af9dd0103790585c9deda38c0029",
  "source": "pragma solidity ^0.4.2;\n\ncontract ContentStore {\n    mapping (address => bytes8) private store;\n\n    function saveData(address user, bytes8 shard) public returns(bool) {\n        //Save the shard data to the correspoding user's record\n\n        store[user] = shard;\n        return true;\n    }\n\n    function getData(address user) public view returns(bytes8) {\n        require(store[user] != 0x0);\n        return store[user];\n    }\n}",
  "sourcePath": "/home/sharath/Projectz/Blockchain/Passwor-D-app/contracts/ContentStore.sol",
  "compiler": {
    "name": "solc",
    "version": "0.4.21+commit.dfe3193c.Emscripten.clang"
  },
  "schemaVersion": "2.0.0",
  "updatedAt": "2018-04-14T19:18:48.985Z"
}