{
  "contractName": "ContentStore",
  "abi": [
    {
      "payable": true,
      "stateMutability": "payable",
      "type": "fallback"
    },
    {
      "constant": false,
      "inputs": [
        {
          "name": "user",
          "type": "address"
        },
        {
          "name": "shard",
          "type": "bytes8"
        }
      ],
      "name": "saveData",
      "outputs": [
        {
          "name": "",
          "type": "bool"
        }
      ],
      "payable": true,
      "stateMutability": "payable",
      "type": "function"
    },
    {
      "constant": true,
      "inputs": [
        {
          "name": "user",
          "type": "address"
        }
      ],
      "name": "getData",
      "outputs": [
        {
          "name": "",
          "type": "bytes8"
        }
      ],
      "payable": false,
      "stateMutability": "view",
      "type": "function"
    },
    {
      "constant": false,
      "inputs": [
        {
          "name": "key",
          "type": "string"
        },
        {
          "name": "value",
          "type": "string"
        }
      ],
      "name": "setTest",
      "outputs": [
        {
          "name": "",
          "type": "bool"
        }
      ],
      "payable": true,
      "stateMutability": "payable",
      "type": "function"
    },
    {
      "constant": true,
      "inputs": [
        {
          "name": "key",
          "type": "string"
        }
      ],
      "name": "getTest",
      "outputs": [
        {
          "name": "",
          "type": "string"
        }
      ],
      "payable": false,
      "stateMutability": "view",
      "type": "function"
    }
  ],
  "bytecode": "0x6060604052341561000f57600080fd5b6106ec8061001e6000396000f300606060405260043610610062576000357c0100000000000000000000000000000000000000000000000000000000900463ffffffff16806338266b2214610064578063396a6bd8146100e757806365543de014610151578063f8aa5a7714610227575b005b341561006f57600080fd5b61009b600480803573ffffffffffffffffffffffffffffffffffffffff169060200190919050506102d4565b604051808277ffffffffffffffffffffffffffffffffffffffffffffffff191677ffffffffffffffffffffffffffffffffffffffffffffffff1916815260200191505060405180910390f35b610137600480803573ffffffffffffffffffffffffffffffffffffffff1690602001909190803577ffffffffffffffffffffffffffffffffffffffffffffffff19169060200190919050506103e9565b604051808215151515815260200191505060405180910390f35b341561015c57600080fd5b6101ac600480803590602001908201803590602001908080601f0160208091040260200160405190810160405280939291908181526020018383808284378201915050505050509190505061046c565b6040518080602001828103825283818151815260200191508051906020019080838360005b838110156101ec5780820151818401526020810190506101d1565b50505050905090810190601f1680156102195780820380516001836020036101000a031916815260200191505b509250505060405180910390f35b6102ba600480803590602001908201803590602001908080601f0160208091040260200160405190810160405280939291908181526020018383808284378201915050505050509190803590602001908201803590602001908080601f0160208091040260200160405190810160405280939291908181526020018383808284378201915050505050509190505061057f565b604051808215151515815260200191505060405180910390f35b6000807801000000000000000000000000000000000000000000000000026000808473ffffffffffffffffffffffffffffffffffffffff1673ffffffffffffffffffffffffffffffffffffffff16815260200190815260200160002060009054906101000a900478010000000000000000000000000000000000000000000000000277ffffffffffffffffffffffffffffffffffffffffffffffff19161415151561037e57600080fd5b6000808373ffffffffffffffffffffffffffffffffffffffff1673ffffffffffffffffffffffffffffffffffffffff16815260200190815260200160002060009054906101000a90047801000000000000000000000000000000000000000000000000029050919050565b6000816000808573ffffffffffffffffffffffffffffffffffffffff1673ffffffffffffffffffffffffffffffffffffffff16815260200190815260200160002060006101000a81548167ffffffffffffffff02191690837801000000000000000000000000000000000000000000000000900402179055506001905092915050565b610474610607565b6001826040518082805190602001908083835b6020831015156104ac5780518252602082019150602081019050602083039250610487565b6001836020036101000a03801982511681845116808217855250505050505090500191505090815260200160405180910390208054600181600116156101000203166002900480601f0160208091040260200160405190810160405280929190818152602001828054600181600116156101000203166002900480156105735780601f1061054857610100808354040283529160200191610573565b820191906000526020600020905b81548152906001019060200180831161055657829003601f168201915b50505050509050919050565b6000816001846040518082805190602001908083835b6020831015156105ba5780518252602082019150602081019050602083039250610595565b6001836020036101000a0380198251168184511680821785525050505050509050019150509081526020016040518091039020908051906020019061060092919061061b565b5092915050565b602060405190810160405280600081525090565b828054600181600116156101000203166002900490600052602060002090601f016020900481019282601f1061065c57805160ff191683800117855561068a565b8280016001018555821561068a579182015b8281111561068957825182559160200191906001019061066e565b5b509050610697919061069b565b5090565b6106bd91905b808211156106b95760008160009055506001016106a1565b5090565b905600a165627a7a723058200ce360f322791d90947e562f2e82be648538346761cbde0393c05e8bd1a036900029",
  "source": "pragma solidity ^0.4.2;\n\ncontract ContentStore {\n    mapping (address => bytes8) private store;\n    mapping (string => string) private stringTest;\n\n    function saveData(address user, bytes8 shard)\n    public\n    payable\n    returns(bool) {\n        //Save the shard data to the correspoding user's record\n\n        store[user] = shard;\n        return true;\n    }\n\n    function getData(address user) public view returns(bytes8) {\n        require(store[user] != 0x0);\n        return store[user];\n    }\n\n    function setTest(string key, string value) public payable returns(bool) {\n        stringTest[key] = value;\n    }\n\n    function getTest(string key) public view returns(string) {\n        return stringTest[key];\n    }\n\n    function() public payable {\n\n    }\n}",
  "sourcePath": "/home/sharath/Projectz/Blockchain/Passwor-D-app/contracts/ContentStore.sol",
  "compiler": {
    "name": "solc",
    "version": "0.4.21+commit.dfe3193c.Emscripten.clang"
  },
  "schemaVersion": "2.0.0",
  "updatedAt": "2018-04-17T21:06:29.815Z"
}