{
  "contractName": "ContentLocator",
  "abi": [
    {
      "payable": true,
      "stateMutability": "payable",
      "type": "fallback"
    },
    {
      "constant": false,
      "inputs": [
        {
          "name": "locs",
          "type": "address[]"
        }
      ],
      "name": "addLocations",
      "outputs": [
        {
          "name": "",
          "type": "bool"
        }
      ],
      "payable": true,
      "stateMutability": "payable",
      "type": "function"
    },
    {
      "constant": false,
      "inputs": [
        {
          "name": "user",
          "type": "address"
        },
        {
          "name": "content",
          "type": "bytes32"
        }
      ],
      "name": "shardContent",
      "outputs": [
        {
          "name": "",
          "type": "bool"
        }
      ],
      "payable": true,
      "stateMutability": "payable",
      "type": "function"
    },
    {
      "constant": true,
      "inputs": [],
      "name": "getLocationsCount",
      "outputs": [
        {
          "name": "",
          "type": "uint256"
        }
      ],
      "payable": false,
      "stateMutability": "view",
      "type": "function"
    },
    {
      "constant": false,
      "inputs": [
        {
          "name": "key",
          "type": "bytes32"
        },
        {
          "name": "value",
          "type": "bytes32"
        }
      ],
      "name": "setPassword",
      "outputs": [
        {
          "name": "",
          "type": "bool"
        }
      ],
      "payable": true,
      "stateMutability": "payable",
      "type": "function"
    }
  ],
  "bytecode": "0x6060604052341561000f57600080fd5b61082f8061001e6000396000f300606060405260043610610062576000357c0100000000000000000000000000000000000000000000000000000000900463ffffffff16806324b8a12d146100645780633f068212146100b757806358fc3c3c1461011e578063629f94501461015f575b005b61009d600480803573ffffffffffffffffffffffffffffffffffffffff1690602001909190803560001916906020019091905050610188565b604051808215151515815260200191505060405180910390f35b610104600480803590602001908201803590602001908080602002602001604051908101604052809392919081815260200183836020028082843782019150505050505091905050610574565b604051808215151515815260200191505060405180910390f35b61014560048080356000191690602001909190803560001916906020019091905050610664565b604051808215151515815260200191505060405180910390f35b341561016a57600080fd5b61017261074e565b6040518082815260200191505060405180910390f35b600061019261075b565b61019a61079e565b600080608060405190810160405280600078010000000000000000000000000000000000000000000000000277ffffffffffffffffffffffffffffffffffffffffffffffff191677ffffffffffffffffffffffffffffffffffffffffffffffff19168152602001600078010000000000000000000000000000000000000000000000000277ffffffffffffffffffffffffffffffffffffffffffffffff19168152602001600078010000000000000000000000000000000000000000000000000277ffffffffffffffffffffffffffffffffffffffffffffffff19168152602001600078010000000000000000000000000000000000000000000000000277ffffffffffffffffffffffffffffffffffffffffffffffff1916815250935085845285600885015285601085015285601885015260008060008973ffffffffffffffffffffffffffffffffffffffff1673ffffffffffffffffffffffffffffffffffffffff168152602001908152602001600020600081548110151561031b57fe5b906000526020600020900160009054906101000a900473ffffffffffffffffffffffffffffffffffffffff1673ffffffffffffffffffffffffffffffffffffffff161415151561036a57600080fd5b6000808873ffffffffffffffffffffffffffffffffffffffff1673ffffffffffffffffffffffffffffffffffffffff16815260200190815260200160002080548060200260200160405190810160405280929190818152602001828054801561042857602002820191906000526020600020905b8160009054906101000a900473ffffffffffffffffffffffffffffffffffffffff1673ffffffffffffffffffffffffffffffffffffffff16815260200190600101908083116103de575b50505050509250600091505b600482101561056657828281518110151561044b57fe5b9060200190602002015190508073ffffffffffffffffffffffffffffffffffffffff1663396a6bd888868560048110151561048257fe5b60200201516040518363ffffffff167c0100000000000000000000000000000000000000000000000000000000028152600401808373ffffffffffffffffffffffffffffffffffffffff1673ffffffffffffffffffffffffffffffffffffffff1681526020018277ffffffffffffffffffffffffffffffffffffffffffffffff191677ffffffffffffffffffffffffffffffffffffffffffffffff1916815260200192505050602060405180830381600087803b151561054157600080fd5b5af1151561054e57600080fd5b50505060405180519050508180600101925050610434565b600194505050505092915050565b600080600090505b825181101561065a57600073ffffffffffffffffffffffffffffffffffffffff1683828151811015156105ab57fe5b9060200190602002015173ffffffffffffffffffffffffffffffffffffffff1614151561064d57600180548060010182816105e691906107b2565b91600052602060002090016000858481518110151561060157fe5b90602001906020020151909190916101000a81548173ffffffffffffffffffffffffffffffffffffffff021916908373ffffffffffffffffffffffffffffffffffffffff160217905550505b808060010191505061057c565b6001915050919050565b6000806001600081548110151561067757fe5b906000526020600020900160009054906101000a900473ffffffffffffffffffffffffffffffffffffffff1690508073ffffffffffffffffffffffffffffffffffffffff1663e66773bd85856040518363ffffffff167c0100000000000000000000000000000000000000000000000000000000028152600401808360001916600019168152602001826000191660001916815260200192505050602060405180830381600087803b151561072b57600080fd5b5af1151561073857600080fd5b5050506040518051905050600191505092915050565b6000600180549050905090565b6080604051908101604052806004905b600077ffffffffffffffffffffffffffffffffffffffffffffffff191681526020019060019003908161076b5790505090565b602060405190810160405280600081525090565b8154818355818115116107d9578183600052602060002091820191016107d891906107de565b5b505050565b61080091905b808211156107fc5760008160009055506001016107e4565b5090565b905600a165627a7a723058200d9d48ee285d67fc00e272543ae3c59dd1b9bdcd27221b26bb5925c04feeeb670029",
  "source": "pragma solidity ^0.4.2;\n\nimport \"./ContentStore.sol\";\n\ncontract ContentLocator {\n    mapping(address => address[]) private locator;\n\n    address[] private locations;\n\n    function addLocations(address[] locs)\n    public \n    payable\n    returns(bool) {\n        //Copy the input ContentStores to the locations list\n\n        for (uint i = 0; i < locs.length; i++) {\n            if(locs[i]!=address(0)) {\n                locations.push(locs[i]);\n            }\n        }\n\n        return true;\n    }\n\n    function shardContent(address user, bytes32 content)\n    public\n    payable\n    returns (bool) {\n        //Shard the content to multiple smart contracts\n\n        bytes8[4] memory shards = [bytes8(0), 0, 0, 0];\n        assembly {\n            mstore(shards, content)\n            mstore(add(shards, 8), content)\n            mstore(add(shards, 16), content)\n            mstore(add(shards, 24), content)\n        }\n\n        require(locator[user][0] != 0x0);\n\n        address[] memory targets = locator[user];\n\n        for (uint i = 0; i < 4; i++) {\n            ContentStore store = ContentStore(targets[i]);\n            store.saveData(user, shards[i]);\n        }\n\n        return true;\n    }\n\n\n    function getLocationsCount() public view returns(uint) {\n        return locations.length;\n    }\n\n    function setPassword(bytes32 key, bytes32 value) public payable returns(bool) {\n        ContentStore store = ContentStore(locations[0]);\n        store.setTest(key, value);\n        return true;\n    }\n\n    // function setPassword(int key) public payable returns(int) {\n    //     ContentStore store = ContentStore(locations[0]);\n    //     //store.setTest(key);\n    //     return store.getTest();\n    // }\n\n    function() public payable {\n\n    }\n}\n\n// contract IContentStore {\n//     function saveData(address user, bytes8 shard) public returns(bool);\n//     function getData(address user) public view returns(bytes8);\n//     function setTest(int key) public payable returns(bool);\n//     function getTest() public view returns(int);\n// }",
  "sourcePath": "/home/sharath/Projectz/Blockchain/Passwor-D-app/contracts/ContentLocator.sol",
  "compiler": {
    "name": "solc",
    "version": "0.4.21+commit.dfe3193c.Emscripten.clang"
  },
  "schemaVersion": "2.0.0",
  "updatedAt": "2018-04-18T18:49:21.844Z"
}