{
  "contractName": "ContentLocator",
  "abi": [
    {
      "constant": false,
      "inputs": [
        {
          "name": "locs",
          "type": "address[]"
        }
      ],
      "name": "addLocations",
      "outputs": [
        {
          "name": "",
          "type": "bool"
        }
      ],
      "payable": false,
      "stateMutability": "nonpayable",
      "type": "function"
    },
    {
      "constant": false,
      "inputs": [
        {
          "name": "user",
          "type": "address"
        },
        {
          "name": "content",
          "type": "bytes32"
        }
      ],
      "name": "shardContent",
      "outputs": [
        {
          "name": "",
          "type": "bool"
        }
      ],
      "payable": false,
      "stateMutability": "nonpayable",
      "type": "function"
    }
  ],
  "bytecode": "0x6060604052341561000f57600080fd5b6106d18061001e6000396000f30060606040526004361061004c576000357c0100000000000000000000000000000000000000000000000000000000900463ffffffff16806324b8a12d146100515780633f068212146100af575b600080fd5b341561005c57600080fd5b610095600480803573ffffffffffffffffffffffffffffffffffffffff1690602001909190803560001916906020019091905050610121565b604051808215151515815260200191505060405180910390f35b34156100ba57600080fd5b61010760048080359060200190820180359060200190808060200260200160405190810160405280939291908181526020018383602002808284378201915050505050509190505061050d565b604051808215151515815260200191505060405180910390f35b600061012b6105fd565b610133610640565b600080608060405190810160405280600078010000000000000000000000000000000000000000000000000277ffffffffffffffffffffffffffffffffffffffffffffffff191677ffffffffffffffffffffffffffffffffffffffffffffffff19168152602001600078010000000000000000000000000000000000000000000000000277ffffffffffffffffffffffffffffffffffffffffffffffff19168152602001600078010000000000000000000000000000000000000000000000000277ffffffffffffffffffffffffffffffffffffffffffffffff19168152602001600078010000000000000000000000000000000000000000000000000277ffffffffffffffffffffffffffffffffffffffffffffffff1916815250935085845285600885015285601085015285601885015260008060008973ffffffffffffffffffffffffffffffffffffffff1673ffffffffffffffffffffffffffffffffffffffff16815260200190815260200160002060008154811015156102b457fe5b906000526020600020900160009054906101000a900473ffffffffffffffffffffffffffffffffffffffff1673ffffffffffffffffffffffffffffffffffffffff161415151561030357600080fd5b6000808873ffffffffffffffffffffffffffffffffffffffff1673ffffffffffffffffffffffffffffffffffffffff1681526020019081526020016000208054806020026020016040519081016040528092919081815260200182805480156103c157602002820191906000526020600020905b8160009054906101000a900473ffffffffffffffffffffffffffffffffffffffff1673ffffffffffffffffffffffffffffffffffffffff1681526020019060010190808311610377575b50505050509250600091505b60048210156104ff5782828151811015156103e457fe5b9060200190602002015190508073ffffffffffffffffffffffffffffffffffffffff1663396a6bd888868560048110151561041b57fe5b60200201516040518363ffffffff167c0100000000000000000000000000000000000000000000000000000000028152600401808373ffffffffffffffffffffffffffffffffffffffff1673ffffffffffffffffffffffffffffffffffffffff1681526020018277ffffffffffffffffffffffffffffffffffffffffffffffff191677ffffffffffffffffffffffffffffffffffffffffffffffff1916815260200192505050602060405180830381600087803b15156104da57600080fd5b5af115156104e757600080fd5b505050604051805190505081806001019250506103cd565b600194505050505092915050565b600080600090505b82518110156105f357600073ffffffffffffffffffffffffffffffffffffffff16838281518110151561054457fe5b9060200190602002015173ffffffffffffffffffffffffffffffffffffffff161415156105e6576001805480600101828161057f9190610654565b91600052602060002090016000858481518110151561059a57fe5b90602001906020020151909190916101000a81548173ffffffffffffffffffffffffffffffffffffffff021916908373ffffffffffffffffffffffffffffffffffffffff160217905550505b8080600101915050610515565b6001915050919050565b6080604051908101604052806004905b600077ffffffffffffffffffffffffffffffffffffffffffffffff191681526020019060019003908161060d5790505090565b602060405190810160405280600081525090565b81548183558181151161067b5781836000526020600020918201910161067a9190610680565b5b505050565b6106a291905b8082111561069e576000816000905550600101610686565b5090565b905600a165627a7a723058206197d1ef7bb72a1ef9ecb715314cf4a002c91935eeb8eddad03b765abea78d670029",
  "source": "pragma solidity ^0.4.2;\n\nimport \"./ContentStore.sol\";\n\ncontract ContentLocator {\n    mapping(address => address[]) private locator;\n\n    address[] private locations;\n\n    // function ContentLocator(address[] locs) public {\n    //     addLocations(locs);\n    // }  \n\n    function addLocations(address[] locs) public returns(bool) {\n        //Copy the input ContentStores to the locations list\n\n        for (uint i = 0; i < locs.length; i++) {\n            if(locs[i]!=address(0)) {\n                locations.push(locs[i]);\n            }\n        }\n\n        return true;\n    }\n\n    function shardContent(address user, bytes32 content) public returns (bool) {\n        //Shard the content to multiple smart contracts\n\n        bytes8[4] memory shards = [bytes8(0), 0, 0, 0];\n        assembly {\n            mstore(shards, content)\n            mstore(add(shards, 8), content)\n            mstore(add(shards, 16), content)\n            mstore(add(shards, 24), content)\n        }\n\n        require(locator[user][0] != 0x0);\n\n        address[] memory targets = locator[user];\n\n        for (uint i = 0; i < 4; i++) {\n            ContentStore store = ContentStore(targets[i]);\n            store.saveData(user, shards[i]);\n        }\n\n        return true;\n    }\n}\n\n// contract ContentStore {\n//     function saveData(address user, bytes8 shard) public returns(bool);\n//     function getData(address user) public view returns(bytes8);\n// }",
  "sourcePath": "/home/sharath/Projectz/Blockchain/Passwor-D-app/contracts/ContentLocator.sol",
  "compiler": {
    "name": "solc",
    "version": "0.4.21+commit.dfe3193c.Emscripten.clang"
  },
  "schemaVersion": "2.0.0",
  "updatedAt": "2018-04-15T17:00:51.739Z"
}