{
  "contractName": "ContentLocator",
  "abi": [
    {
      "payable": true,
      "stateMutability": "payable",
      "type": "fallback"
    },
    {
      "constant": false,
      "inputs": [
        {
          "name": "locs",
          "type": "address[]"
        }
      ],
      "name": "addLocations",
      "outputs": [
        {
          "name": "",
          "type": "bool"
        }
      ],
      "payable": true,
      "stateMutability": "payable",
      "type": "function"
    },
    {
      "constant": false,
      "inputs": [
        {
          "name": "user",
          "type": "address"
        },
        {
          "name": "content",
          "type": "bytes32"
        }
      ],
      "name": "shardContent",
      "outputs": [
        {
          "name": "",
          "type": "bool"
        }
      ],
      "payable": true,
      "stateMutability": "payable",
      "type": "function"
    },
    {
      "constant": true,
      "inputs": [],
      "name": "getLocationsCount",
      "outputs": [
        {
          "name": "",
          "type": "uint256"
        }
      ],
      "payable": false,
      "stateMutability": "view",
      "type": "function"
    }
  ],
  "bytecode": "0x6060604052341561000f57600080fd5b6106f98061001e6000396000f300606060405260043610610057576000357c0100000000000000000000000000000000000000000000000000000000900463ffffffff16806324b8a12d146100595780633f068212146100ac578063629f945014610113575b005b610092600480803573ffffffffffffffffffffffffffffffffffffffff169060200190919080356000191690602001909190505061013c565b604051808215151515815260200191505060405180910390f35b6100f9600480803590602001908201803590602001908080602002602001604051908101604052809392919081815260200183836020028082843782019150505050505091905050610528565b604051808215151515815260200191505060405180910390f35b341561011e57600080fd5b610126610618565b6040518082815260200191505060405180910390f35b6000610146610625565b61014e610668565b600080608060405190810160405280600078010000000000000000000000000000000000000000000000000277ffffffffffffffffffffffffffffffffffffffffffffffff191677ffffffffffffffffffffffffffffffffffffffffffffffff19168152602001600078010000000000000000000000000000000000000000000000000277ffffffffffffffffffffffffffffffffffffffffffffffff19168152602001600078010000000000000000000000000000000000000000000000000277ffffffffffffffffffffffffffffffffffffffffffffffff19168152602001600078010000000000000000000000000000000000000000000000000277ffffffffffffffffffffffffffffffffffffffffffffffff1916815250935085845285600885015285601085015285601885015260008060008973ffffffffffffffffffffffffffffffffffffffff1673ffffffffffffffffffffffffffffffffffffffff16815260200190815260200160002060008154811015156102cf57fe5b906000526020600020900160009054906101000a900473ffffffffffffffffffffffffffffffffffffffff1673ffffffffffffffffffffffffffffffffffffffff161415151561031e57600080fd5b6000808873ffffffffffffffffffffffffffffffffffffffff1673ffffffffffffffffffffffffffffffffffffffff1681526020019081526020016000208054806020026020016040519081016040528092919081815260200182805480156103dc57602002820191906000526020600020905b8160009054906101000a900473ffffffffffffffffffffffffffffffffffffffff1673ffffffffffffffffffffffffffffffffffffffff1681526020019060010190808311610392575b50505050509250600091505b600482101561051a5782828151811015156103ff57fe5b9060200190602002015190508073ffffffffffffffffffffffffffffffffffffffff1663396a6bd888868560048110151561043657fe5b60200201516040518363ffffffff167c0100000000000000000000000000000000000000000000000000000000028152600401808373ffffffffffffffffffffffffffffffffffffffff1673ffffffffffffffffffffffffffffffffffffffff1681526020018277ffffffffffffffffffffffffffffffffffffffffffffffff191677ffffffffffffffffffffffffffffffffffffffffffffffff1916815260200192505050602060405180830381600087803b15156104f557600080fd5b5af1151561050257600080fd5b505050604051805190505081806001019250506103e8565b600194505050505092915050565b600080600090505b825181101561060e57600073ffffffffffffffffffffffffffffffffffffffff16838281518110151561055f57fe5b9060200190602002015173ffffffffffffffffffffffffffffffffffffffff16141515610601576001805480600101828161059a919061067c565b9160005260206000209001600085848151811015156105b557fe5b90602001906020020151909190916101000a81548173ffffffffffffffffffffffffffffffffffffffff021916908373ffffffffffffffffffffffffffffffffffffffff160217905550505b8080600101915050610530565b6001915050919050565b6000600180549050905090565b6080604051908101604052806004905b600077ffffffffffffffffffffffffffffffffffffffffffffffff19168152602001906001900390816106355790505090565b602060405190810160405280600081525090565b8154818355818115116106a3578183600052602060002091820191016106a291906106a8565b5b505050565b6106ca91905b808211156106c65760008160009055506001016106ae565b5090565b905600a165627a7a7230582058097c9467dc1382efb8ab3639056c7fab3a018bed5fc11926b015997e29e3a50029",
  "source": "pragma solidity ^0.4.2;\n\nimport \"./ContentStore.sol\";\n\ncontract ContentLocator {\n    mapping(address => address[]) private locator;\n\n    address[] private locations;\n\n    function addLocations(address[] locs)\n    public \n    payable\n    returns(bool) {\n        //Copy the input ContentStores to the locations list\n\n        for (uint i = 0; i < locs.length; i++) {\n            if(locs[i]!=address(0)) {\n                locations.push(locs[i]);\n            }\n        }\n\n        return true;\n    }\n\n    function shardContent(address user, bytes32 content)\n    public\n    payable\n    returns (bool) {\n        //Shard the content to multiple smart contracts\n\n        bytes8[4] memory shards = [bytes8(0), 0, 0, 0];\n        assembly {\n            mstore(shards, content)\n            mstore(add(shards, 8), content)\n            mstore(add(shards, 16), content)\n            mstore(add(shards, 24), content)\n        }\n\n        require(locator[user][0] != 0x0);\n\n        address[] memory targets = locator[user];\n\n        for (uint i = 0; i < 4; i++) {\n            ContentStore store = ContentStore(targets[i]);\n            store.saveData(user, shards[i]);\n        }\n\n        return true;\n    }\n\n\n    function getLocationsCount() public view returns(uint) {\n        return locations.length;\n    }\n\n    function() public payable {\n\n    }\n}\n\n// contract ContentStore {\n//     function saveData(address user, bytes8 shard) public returns(bool);\n//     function getData(address user) public view returns(bytes8);\n// }",
  "sourcePath": "/home/sharath/Projectz/Blockchain/Passwor-D-app/contracts/ContentLocator.sol",
  "compiler": {
    "name": "solc",
    "version": "0.4.21+commit.dfe3193c.Emscripten.clang"
  },
  "schemaVersion": "2.0.0",
  "updatedAt": "2018-04-17T21:06:29.791Z"
}