{
  "contractName": "ContentLocator",
  "abi": [
    {
      "payable": true,
      "stateMutability": "payable",
      "type": "fallback"
    },
    {
      "constant": false,
      "inputs": [
        {
          "name": "locs",
          "type": "address[]"
        }
      ],
      "name": "addLocations",
      "outputs": [
        {
          "name": "",
          "type": "bool"
        }
      ],
      "payable": true,
      "stateMutability": "payable",
      "type": "function"
    },
    {
      "constant": false,
      "inputs": [
        {
          "name": "keys",
          "type": "bytes32[100]"
        },
        {
          "name": "values",
          "type": "bytes32[100]"
        }
      ],
      "name": "shardContent",
      "outputs": [
        {
          "name": "",
          "type": "bool"
        }
      ],
      "payable": true,
      "stateMutability": "payable",
      "type": "function"
    },
    {
      "constant": false,
      "inputs": [],
      "name": "getData",
      "outputs": [
        {
          "name": "keys",
          "type": "bytes32[100]"
        },
        {
          "name": "values",
          "type": "bytes32[100]"
        }
      ],
      "payable": true,
      "stateMutability": "payable",
      "type": "function"
    },
    {
      "constant": true,
      "inputs": [],
      "name": "getLocationsCount",
      "outputs": [
        {
          "name": "",
          "type": "uint256"
        }
      ],
      "payable": false,
      "stateMutability": "view",
      "type": "function"
    },
    {
      "constant": true,
      "inputs": [],
      "name": "getLocatorLength",
      "outputs": [
        {
          "name": "",
          "type": "uint256"
        }
      ],
      "payable": false,
      "stateMutability": "view",
      "type": "function"
    }
  ],
  "bytecode": "0x6060604052341561000f57600080fd5b6109ae8061001e6000396000f30060606040526004361061006d576000357c0100000000000000000000000000000000000000000000000000000000900463ffffffff1680633bc5de301461006f5780633f068212146100e4578063629f94501461014b578063ce8244bf14610174578063e01a42511461019d575b005b61007761021e565b6040518083606460200280838360005b838110156100a2578082015181840152602081019050610087565b5050505090500182606460200280838360005b838110156100d05780820151818401526020810190506100b5565b505050509050019250505060405180910390f35b610131600480803590602001908201803590602001908080602002602001604051908101604052809392919081815260200183836020028082843782019150505050505091905050610491565b604051808215151515815260200191505060405180910390f35b341561015657600080fd5b61015e610581565b6040518082815260200191505060405180910390f35b341561017f57600080fd5b61018761058e565b6040518082815260200191505060405180910390f35b61020460048080610c80019060648060200260405190810160405280929190826064602002808284378201915050505050919080610c80019060648060200260405190810160405280929190826064602002808284378201915050505050919050506105da565b604051808215151515815260200191505060405180910390f35b6102266108b4565b61022e6108b4565b60008060008060003373ffffffffffffffffffffffffffffffffffffffff1673ffffffffffffffffffffffffffffffffffffffff168152602001908152602001600020600001805490501415151561028557600080fd5b600091505b600382101561048b576000803373ffffffffffffffffffffffffffffffffffffffff1673ffffffffffffffffffffffffffffffffffffffff168152602001908152602001600020600001828154811015156102e157fe5b90600052602060002090015484836064811015156102fb57fe5b602002019060001916908160001916815250506000803373ffffffffffffffffffffffffffffffffffffffff1673ffffffffffffffffffffffffffffffffffffffff1681526020019081526020016000206001018281548110151561035c57fe5b906000526020600020900160009054906101000a900473ffffffffffffffffffffffffffffffffffffffff1690508073ffffffffffffffffffffffffffffffffffffffff16638b270b933386856064811015156103b557fe5b60200201516040518363ffffffff167c0100000000000000000000000000000000000000000000000000000000028152600401808373ffffffffffffffffffffffffffffffffffffffff1673ffffffffffffffffffffffffffffffffffffffff168152602001826000191660001916815260200192505050602060405180830381600087803b151561044657600080fd5b5af1151561045357600080fd5b50505060405180519050838360648110151561046b57fe5b60200201906000191690816000191681525050818060010192505061028a565b50509091565b600080600090505b825181101561057757600073ffffffffffffffffffffffffffffffffffffffff1683828151811015156104c857fe5b9060200190602002015173ffffffffffffffffffffffffffffffffffffffff1614151561056a576001805480600101828161050391906108e0565b91600052602060002090016000858481518110151561051e57fe5b90602001906020020151909190916101000a81548173ffffffffffffffffffffffffffffffffffffffff021916908373ffffffffffffffffffffffffffffffffffffffff160217905550505b8080600101915050610499565b6001915050919050565b6000600180549050905090565b60008060003373ffffffffffffffffffffffffffffffffffffffff1673ffffffffffffffffffffffffffffffffffffffff16815260200190815260200160002060000180549050905090565b60008060008060009250600091505b60648210156108a7576000803373ffffffffffffffffffffffffffffffffffffffff1673ffffffffffffffffffffffffffffffffffffffff1681526020019081526020016000206000018054806001018281610645919061090c565b91600052602060002090016000888560648110151561066057fe5b6020020151909190915090600019169055506000803373ffffffffffffffffffffffffffffffffffffffff1673ffffffffffffffffffffffffffffffffffffffff16815260200190815260200160002060010180548060010182816106c591906108e0565b916000526020600020900160006001868154811015156106e157fe5b906000526020600020900160009054906101000a900473ffffffffffffffffffffffffffffffffffffffff16909190916101000a81548173ffffffffffffffffffffffffffffffffffffffff021916908373ffffffffffffffffffffffffffffffffffffffff1602179055505060018381548110151561075d57fe5b906000526020600020900160009054906101000a900473ffffffffffffffffffffffffffffffffffffffff1690508073ffffffffffffffffffffffffffffffffffffffff16638a03c6b73388856064811015156107b657fe5b602002015188866064811015156107c957fe5b60200201516040518463ffffffff167c0100000000000000000000000000000000000000000000000000000000028152600401808473ffffffffffffffffffffffffffffffffffffffff1673ffffffffffffffffffffffffffffffffffffffff168152602001836000191660001916815260200182600019166000191681526020019350505050602060405180830381600087803b151561086957600080fd5b5af1151561087657600080fd5b50505060405180519050506001805490508360010193508310151561089a57600092505b81806001019250506105e9565b6001935050505092915050565b610c80604051908101604052806064905b60008019168152602001906001900390816108c55790505090565b815481835581811511610907578183600052602060002091820191016109069190610938565b5b505050565b81548183558181151161093357818360005260206000209182019101610932919061095d565b5b505050565b61095a91905b8082111561095657600081600090555060010161093e565b5090565b90565b61097f91905b8082111561097b576000816000905550600101610963565b5090565b905600a165627a7a72305820d22dd00f58ad026f3f5ce2ae7db2411d92537e073e80e46ff816694fd6bac6110029",
  "source": "pragma solidity ^0.4.2;\n\nimport \"./ContentStore.sol\";\n\ncontract ContentLocator {\n    struct KeyAddress {\n        bytes32[] keys;\n        address[] keyLocations;\n    }\n\n    mapping(address => KeyAddress) private locator;\n\n    address[] private locations;\n\n    function addLocations(address[] locs)\n    public \n    payable\n    returns(bool) {\n        //Copy the input ContentStores to the locations list\n\n        for (uint i = 0; i < locs.length; i++) {\n            if(locs[i]!=address(0)) {\n                locations.push(locs[i]);\n            }\n        }\n\n        return true;\n    }\n\n    function shardContent(bytes32[100] keys, bytes32[100] values)\n    public\n    payable\n    returns (bool) {\n        //Shard the content to multiple smart contracts\n        \n        uint rand = 0;\n\n        for(uint i = 0; i < keys.length; i++) {\n            locator[msg.sender].keys.push(keys[i]);\n            locator[msg.sender].keyLocations.push(locations[rand]);\n\n            ContentStore store = ContentStore(locations[rand]);\n            store.saveData(msg.sender, keys[i], values[i]);\n\n            if(++rand >= locations.length) {\n                rand = 0;\n            }\n        }\n\n        return true;\n    }\n\n    function getData()\n    public\n    payable\n    returns(bytes32[100] keys, bytes32[100] values) {\n        //Gather the shards and return content\n        \n        require(locator[msg.sender].keys.length != 0);\n\n        for(uint i = 0; i < 3; i++) {\n            keys[i] = locator[msg.sender].keys[i];\n\n            ContentStore store = ContentStore(locator[msg.sender].keyLocations[i]);\n            values[i] = store.getData(msg.sender, keys[i]);\n        }\n    }\n\n\n    function getLocationsCount() public view returns(uint) {\n        return locations.length;\n    }\n\n    //Test\n    function getLocatorLength() public view returns(uint) {\n        return locator[msg.sender].keys.length;\n    }\n\n    function() public payable {\n\n    }\n}\n",
  "sourcePath": "/home/sharath/Projectz/Blockchain/Passwor-D-app/contracts/ContentLocator.sol",
  "compiler": {
    "name": "solc",
    "version": "0.4.21+commit.dfe3193c.Emscripten.clang"
  },
  "schemaVersion": "2.0.0",
  "updatedAt": "2018-04-20T20:41:24.944Z"
}