{
  "contractName": "ContentLocator",
  "abi": [
    {
      "constant": false,
      "inputs": [
        {
          "name": "locs",
          "type": "address[]"
        }
      ],
      "name": "addLocations",
      "outputs": [],
      "payable": false,
      "stateMutability": "nonpayable",
      "type": "function"
    },
    {
      "constant": false,
      "inputs": [
        {
          "name": "user",
          "type": "address"
        },
        {
          "name": "content",
          "type": "bytes32"
        }
      ],
      "name": "shardContent",
      "outputs": [
        {
          "name": "",
          "type": "bool"
        }
      ],
      "payable": false,
      "stateMutability": "nonpayable",
      "type": "function"
    }
  ],
  "bytecode": "0x6060604052341561000f57600080fd5b6106b18061001e6000396000f30060606040526004361061004c576000357c0100000000000000000000000000000000000000000000000000000000900463ffffffff16806324b8a12d146100515780633f068212146100af575b600080fd5b341561005c57600080fd5b610095600480803573ffffffffffffffffffffffffffffffffffffffff1690602001909190803560001916906020019091905050610109565b604051808215151515815260200191505060405180910390f35b34156100ba57600080fd5b6101076004808035906020019082018035906020019080806020026020016040519081016040528093929190818152602001838360200280828437820191505050505050919050506104f5565b005b60006101136105dd565b61011b610620565b600080608060405190810160405280600078010000000000000000000000000000000000000000000000000277ffffffffffffffffffffffffffffffffffffffffffffffff191677ffffffffffffffffffffffffffffffffffffffffffffffff19168152602001600078010000000000000000000000000000000000000000000000000277ffffffffffffffffffffffffffffffffffffffffffffffff19168152602001600078010000000000000000000000000000000000000000000000000277ffffffffffffffffffffffffffffffffffffffffffffffff19168152602001600078010000000000000000000000000000000000000000000000000277ffffffffffffffffffffffffffffffffffffffffffffffff1916815250935085845285600885015285601085015285601885015260008060008973ffffffffffffffffffffffffffffffffffffffff1673ffffffffffffffffffffffffffffffffffffffff168152602001908152602001600020600081548110151561029c57fe5b906000526020600020900160009054906101000a900473ffffffffffffffffffffffffffffffffffffffff1673ffffffffffffffffffffffffffffffffffffffff16141515156102eb57600080fd5b6000808873ffffffffffffffffffffffffffffffffffffffff1673ffffffffffffffffffffffffffffffffffffffff1681526020019081526020016000208054806020026020016040519081016040528092919081815260200182805480156103a957602002820191906000526020600020905b8160009054906101000a900473ffffffffffffffffffffffffffffffffffffffff1673ffffffffffffffffffffffffffffffffffffffff168152602001906001019080831161035f575b50505050509250600091505b60048210156104e75782828151811015156103cc57fe5b9060200190602002015190508073ffffffffffffffffffffffffffffffffffffffff1663396a6bd888868560048110151561040357fe5b60200201516040518363ffffffff167c0100000000000000000000000000000000000000000000000000000000028152600401808373ffffffffffffffffffffffffffffffffffffffff1673ffffffffffffffffffffffffffffffffffffffff1681526020018277ffffffffffffffffffffffffffffffffffffffffffffffff191677ffffffffffffffffffffffffffffffffffffffffffffffff1916815260200192505050602060405180830381600087803b15156104c257600080fd5b5af115156104cf57600080fd5b505050604051805190505081806001019250506103b5565b600194505050505092915050565b60008090505b81518110156105d957600073ffffffffffffffffffffffffffffffffffffffff16828281518110151561052a57fe5b9060200190602002015173ffffffffffffffffffffffffffffffffffffffff161415156105cc57600180548060010182816105659190610634565b91600052602060002090016000848481518110151561058057fe5b90602001906020020151909190916101000a81548173ffffffffffffffffffffffffffffffffffffffff021916908373ffffffffffffffffffffffffffffffffffffffff160217905550505b80806001019150506104fb565b5050565b6080604051908101604052806004905b600077ffffffffffffffffffffffffffffffffffffffffffffffff19168152602001906001900390816105ed5790505090565b602060405190810160405280600081525090565b81548183558181151161065b5781836000526020600020918201910161065a9190610660565b5b505050565b61068291905b8082111561067e576000816000905550600101610666565b5090565b905600a165627a7a72305820c900d873bb5f87f44038a4faf3d20d393c2bd4166aed33e5f1407d574b32da0f0029",
  "source": "pragma solidity ^0.4.2;\n\ncontract ContentLocator {\n    mapping(address => address[]) private locator;\n\n    address[] private locations;\n\n    // function ContentLocator(address[] locs) public {\n    //     addLocations(locs);\n    // }  \n\n    function addLocations(address[] locs) public {\n        //Copy the input ContentStores to the locations list\n\n        for (uint i = 0; i < locs.length; i++) {\n            if(locs[i]!=address(0)) {\n                locations.push(locs[i]);\n            }\n        }\n    }\n\n    function shardContent(address user, bytes32 content) public returns (bool) {\n        //Shard the content to multiple smart contracts\n\n        bytes8[4] memory shards = [bytes8(0), 0, 0, 0];\n        assembly {\n            mstore(shards, content)\n            mstore(add(shards, 8), content)\n            mstore(add(shards, 16), content)\n            mstore(add(shards, 24), content)\n        }\n\n        require(locator[user][0] != 0x0);\n\n        address[] memory targets = locator[user];\n\n        for (uint i = 0; i < 4; i++) {\n            ContentStore store = ContentStore(targets[i]);\n            store.saveData(user, shards[i]);\n        }\n\n        return true;\n    }\n}\n\ncontract ContentStore {\n    function saveData(address user, bytes8 shard) public returns(bool);\n    function getData(address user) public view returns(bytes8);\n}",
  "sourcePath": "/home/sharath/Projectz/Blockchain/Passwor-D-app/contracts/ContentLocator.sol",
  "compiler": {
    "name": "solc",
    "version": "0.4.21+commit.dfe3193c.Emscripten.clang"
  },
  "schemaVersion": "2.0.0",
  "updatedAt": "2018-04-14T21:15:10.491Z"
}