{
  "contractName": "Factory",
  "abi": [
    {
      "constant": false,
      "inputs": [],
      "name": "kill",
      "outputs": [],
      "payable": false,
      "stateMutability": "nonpayable",
      "type": "function"
    },
    {
      "constant": true,
      "inputs": [],
      "name": "owner",
      "outputs": [
        {
          "name": "",
          "type": "address"
        }
      ],
      "payable": false,
      "stateMutability": "view",
      "type": "function"
    },
    {
      "constant": false,
      "inputs": [
        {
          "name": "newOwner",
          "type": "address"
        }
      ],
      "name": "transferOwnership",
      "outputs": [],
      "payable": false,
      "stateMutability": "nonpayable",
      "type": "function"
    },
    {
      "constant": false,
      "inputs": [
        {
          "name": "name",
          "type": "bytes32"
        },
        {
          "name": "email",
          "type": "bytes32"
        },
        {
          "name": "password",
          "type": "bytes32"
        }
      ],
      "name": "signUp",
      "outputs": [
        {
          "name": "",
          "type": "bytes32"
        }
      ],
      "payable": true,
      "stateMutability": "payable",
      "type": "function"
    },
    {
      "constant": false,
      "inputs": [
        {
          "name": "name",
          "type": "bytes32"
        },
        {
          "name": "email",
          "type": "bytes32"
        },
        {
          "name": "password",
          "type": "bytes32"
        }
      ],
      "name": "update",
      "outputs": [
        {
          "name": "",
          "type": "bytes32"
        }
      ],
      "payable": true,
      "stateMutability": "payable",
      "type": "function"
    },
    {
      "constant": true,
      "inputs": [
        {
          "name": "password",
          "type": "bytes32"
        }
      ],
      "name": "login",
      "outputs": [
        {
          "name": "",
          "type": "bytes32"
        }
      ],
      "payable": false,
      "stateMutability": "view",
      "type": "function"
    },
    {
      "constant": false,
      "inputs": [
        {
          "name": "password",
          "type": "bytes32"
        }
      ],
      "name": "savePassword",
      "outputs": [
        {
          "name": "",
          "type": "bool"
        }
      ],
      "payable": false,
      "stateMutability": "nonpayable",
      "type": "function"
    },
    {
      "constant": false,
      "inputs": [
        {
          "name": "locs",
          "type": "address[]"
        }
      ],
      "name": "addLocations",
      "outputs": [],
      "payable": false,
      "stateMutability": "nonpayable",
      "type": "function"
    }
  ],
  "bytecode": "0x6060604052336000806101000a81548173ffffffffffffffffffffffffffffffffffffffff021916908373ffffffffffffffffffffffffffffffffffffffff160217905550610c92806100536000396000f30060606040526004361061008e576000357c0100000000000000000000000000000000000000000000000000000000900463ffffffff1680633f0682121461009357806341c0e1b5146100ed5780634ec0b53a14610102578063879281c4146101545780638da5cb5b146101975780639350aabb146101ec5780639c0d25251461022b578063f2fde38b1461027d575b600080fd5b341561009e57600080fd5b6100eb6004808035906020019082018035906020019080806020026020016040519081016040528093929190818152602001838360200280828437820191505050505050919050506102b6565b005b34156100f857600080fd5b61010061039e565b005b610136600480803560001916906020019091908035600019169060200190919080356000191690602001909190505061042f565b60405180826000191660001916815260200191505060405180910390f35b341561015f57600080fd5b6101796004808035600019169060200190919050506106bd565b60405180826000191660001916815260200191505060405180910390f35b34156101a257600080fd5b6101aa610709565b604051808273ffffffffffffffffffffffffffffffffffffffff1673ffffffffffffffffffffffffffffffffffffffff16815260200191505060405180910390f35b34156101f757600080fd5b61021160048080356000191690602001909190505061072e565b604051808215151515815260200191505060405180910390f35b61025f60048080356000191690602001909190803560001916906020019091908035600019169060200190919050506108bb565b60405180826000191660001916815260200191505060405180910390f35b341561028857600080fd5b6102b4600480803573ffffffffffffffffffffffffffffffffffffffff16906020019091905050610b45565b005b60008090505b815181101561039a57600073ffffffffffffffffffffffffffffffffffffffff1682828151811015156102eb57fe5b9060200190602002015173ffffffffffffffffffffffffffffffffffffffff1614151561038d57600280548060010182816103269190610c15565b91600052602060002090016000848481518110151561034157fe5b90602001906020020151909190916101000a81548173ffffffffffffffffffffffffffffffffffffffff021916908373ffffffffffffffffffffffffffffffffffffffff160217905550505b80806001019150506102bc565b5050565b6000809054906101000a900473ffffffffffffffffffffffffffffffffffffffff1673ffffffffffffffffffffffffffffffffffffffff163373ffffffffffffffffffffffffffffffffffffffff16141561042d576000809054906101000a900473ffffffffffffffffffffffffffffffffffffffff1673ffffffffffffffffffffffffffffffffffffffff16ff5b565b6000838383600060010283600019161415151561044b57600080fd5b600060010282600019161415151561046257600080fd5b600060010281600019161415151561047957600080fd5b6000600102600160003373ffffffffffffffffffffffffffffffffffffffff1673ffffffffffffffffffffffffffffffffffffffff16815260200190815260200160002060000154600019161415156104d157600080fd5b86600160003373ffffffffffffffffffffffffffffffffffffffff1673ffffffffffffffffffffffffffffffffffffffff168152602001908152602001600020600001816000191690555084600160003373ffffffffffffffffffffffffffffffffffffffff1673ffffffffffffffffffffffffffffffffffffffff168152602001908152602001600020600201816000191690555085600160003373ffffffffffffffffffffffffffffffffffffffff1673ffffffffffffffffffffffffffffffffffffffff1681526020019081526020016000206001018160001916905550600260008154811015156105c257fe5b906000526020600020900160009054906101000a900473ffffffffffffffffffffffffffffffffffffffff16600160003373ffffffffffffffffffffffffffffffffffffffff1673ffffffffffffffffffffffffffffffffffffffff16815260200190815260200160002060030160006101000a81548173ffffffffffffffffffffffffffffffffffffffff021916908373ffffffffffffffffffffffffffffffffffffffff160217905550600160003373ffffffffffffffffffffffffffffffffffffffff1673ffffffffffffffffffffffffffffffffffffffff1681526020019081526020016000206000015493505050509392505050565b6000600160003373ffffffffffffffffffffffffffffffffffffffff1673ffffffffffffffffffffffffffffffffffffffff168152602001908152602001600020600001549050919050565b6000809054906101000a900473ffffffffffffffffffffffffffffffffffffffff1681565b6000806000600102600160003373ffffffffffffffffffffffffffffffffffffffff1673ffffffffffffffffffffffffffffffffffffffff16815260200190815260200160002060000154600019161415151561078a57600080fd5b600160003373ffffffffffffffffffffffffffffffffffffffff1673ffffffffffffffffffffffffffffffffffffffff16815260200190815260200160002060030160009054906101000a900473ffffffffffffffffffffffffffffffffffffffff1690508073ffffffffffffffffffffffffffffffffffffffff166324b8a12d33856040518363ffffffff167c0100000000000000000000000000000000000000000000000000000000028152600401808373ffffffffffffffffffffffffffffffffffffffff1673ffffffffffffffffffffffffffffffffffffffff168152602001826000191660001916815260200192505050602060405180830381600087803b151561089957600080fd5b5af115156108a657600080fd5b50505060405180519050506001915050919050565b600083838360006001028360001916141515156108d757600080fd5b60006001028260001916141515156108ee57600080fd5b600060010281600019161415151561090557600080fd5b6000600102600160003373ffffffffffffffffffffffffffffffffffffffff1673ffffffffffffffffffffffffffffffffffffffff16815260200190815260200160002060000154600019161415151561095e57600080fd5b6000600102600160003373ffffffffffffffffffffffffffffffffffffffff1673ffffffffffffffffffffffffffffffffffffffff16815260200190815260200160002060000154600019161415156109fd5786600160003373ffffffffffffffffffffffffffffffffffffffff1673ffffffffffffffffffffffffffffffffffffffff16815260200190815260200160002060000181600019169055505b6000600102600160003373ffffffffffffffffffffffffffffffffffffffff1673ffffffffffffffffffffffffffffffffffffffff1681526020019081526020016000206001015460001916141515610a9c5785600160003373ffffffffffffffffffffffffffffffffffffffff1673ffffffffffffffffffffffffffffffffffffffff16815260200190815260200160002060010181600019169055505b6000600102600160003373ffffffffffffffffffffffffffffffffffffffff1673ffffffffffffffffffffffffffffffffffffffff1681526020019081526020016000206002015460001916141515610b3b5784600160003373ffffffffffffffffffffffffffffffffffffffff1673ffffffffffffffffffffffffffffffffffffffff16815260200190815260200160002060020181600019169055505b5050509392505050565b6000809054906101000a900473ffffffffffffffffffffffffffffffffffffffff1673ffffffffffffffffffffffffffffffffffffffff163373ffffffffffffffffffffffffffffffffffffffff161415610c1257600073ffffffffffffffffffffffffffffffffffffffff168173ffffffffffffffffffffffffffffffffffffffff16141515610c1157806000806101000a81548173ffffffffffffffffffffffffffffffffffffffff021916908373ffffffffffffffffffffffffffffffffffffffff1602179055505b5b50565b815481835581811511610c3c57818360005260206000209182019101610c3b9190610c41565b5b505050565b610c6391905b80821115610c5f576000816000905550600101610c47565b5090565b905600a165627a7a72305820efc3d63d91ff06427d82573785fdd0a7bd904d3698cb8372d2d039e848a4cf680029",
  "source": "pragma solidity ^0.4.2;\n\nimport \"./common/Killable.sol\";\nimport \"./ContentLocator.sol\";\n\ncontract Factory is Killable {\n    struct User {\n        bytes32 name;\n        bytes32 email;\n        bytes32 password;\n        address location;\n    }\n\n    mapping (address => User) private users;\n    address[] private locations;\n\n    modifier validCreds(bytes32 name, bytes32 email, bytes32 password) {\n        // Must be valid credentials\n\n        require(!(name == 0x0));\n        require(!(email == 0x0));\n        require(!(password == 0x0));\n        _;\n    }\n\n    modifier onlyExistingUser {\n        // Check if user exists or terminate\n\n        require(!(users[msg.sender].name == 0x0));\n        _;\n    }\n\n    function signUp(bytes32 name, bytes32 email, bytes32 password)\n    public\n    payable\n    validCreds(name, email, password)\n    returns (bytes32) {\n        //Add users name to the hash map\n\n        require(users[msg.sender].name == 0x0);\n\n        users[msg.sender].name = name;\n        users[msg.sender].password = password;\n        users[msg.sender].email = email;\n\n        //Pick a random location for managing this user\n        users[msg.sender].location = locations[0];\n\n        return (users[msg.sender].name);        \n    }\n\n    function update(bytes32 name, bytes32 email, bytes32 password)\n    public\n    payable\n    validCreds(name, email, password)\n    onlyExistingUser\n    returns (bytes32) {\n        // Update user credentials\n\n        if (users[msg.sender].name != 0x0) {\n            users[msg.sender].name = name;\n        }\n\n        if (users[msg.sender].email != 0x0) {\n            users[msg.sender].email = email;\n        }\n\n        if (users[msg.sender].password != 0x0) {\n            users[msg.sender].password = password;\n        }\n    }\n\n    function login(bytes32 password) constant\n    public\n    returns (bytes32) {\n\n        return (users[msg.sender].name);\n    }\n\n    function savePassword(bytes32 password) \n    public\n    onlyExistingUser \n    returns (bool) {\n        ContentLocator locator = ContentLocator(users[msg.sender].location);\n        locator.shardContent(msg.sender, password);\n        return true;\n    }\n\n    function addLocations(address[] locs) public {\n        //Copy the input ContentStores to the locations list\n\n        for (uint i = 0; i < locs.length; i++) {\n            if(locs[i]!=address(0)) {\n                locations.push(locs[i]);\n            }\n        }\n    }\n}\n\n// contract ContentLocator {\n//     function shardContent(address user, bytes32 content) public returns (bool);\n// }\n",
  "sourcePath": "/home/sharath/Projectz/Blockchain/Passwor-D-app/contracts/Factory.sol",
  "compiler": {
    "name": "solc",
    "version": "0.4.21+commit.dfe3193c.Emscripten.clang"
  },
  "schemaVersion": "2.0.0",
  "updatedAt": "2018-04-15T17:00:51.747Z"
}