{
  "contractName": "Factory",
  "abi": [
    {
      "constant": false,
      "inputs": [],
      "name": "kill",
      "outputs": [],
      "payable": false,
      "stateMutability": "nonpayable",
      "type": "function"
    },
    {
      "constant": true,
      "inputs": [],
      "name": "owner",
      "outputs": [
        {
          "name": "",
          "type": "address"
        }
      ],
      "payable": false,
      "stateMutability": "view",
      "type": "function"
    },
    {
      "constant": false,
      "inputs": [
        {
          "name": "newOwner",
          "type": "address"
        }
      ],
      "name": "transferOwnership",
      "outputs": [],
      "payable": false,
      "stateMutability": "nonpayable",
      "type": "function"
    },
    {
      "payable": true,
      "stateMutability": "payable",
      "type": "fallback"
    },
    {
      "constant": false,
      "inputs": [
        {
          "name": "name",
          "type": "bytes32"
        },
        {
          "name": "email",
          "type": "bytes32"
        },
        {
          "name": "password",
          "type": "bytes32"
        }
      ],
      "name": "signUp",
      "outputs": [
        {
          "name": "",
          "type": "bytes32"
        }
      ],
      "payable": true,
      "stateMutability": "payable",
      "type": "function"
    },
    {
      "constant": false,
      "inputs": [
        {
          "name": "name",
          "type": "bytes32"
        },
        {
          "name": "email",
          "type": "bytes32"
        },
        {
          "name": "password",
          "type": "bytes32"
        }
      ],
      "name": "update",
      "outputs": [
        {
          "name": "",
          "type": "bytes32"
        }
      ],
      "payable": true,
      "stateMutability": "payable",
      "type": "function"
    },
    {
      "constant": true,
      "inputs": [
        {
          "name": "password",
          "type": "bytes32"
        }
      ],
      "name": "login",
      "outputs": [
        {
          "name": "",
          "type": "bytes32"
        }
      ],
      "payable": false,
      "stateMutability": "view",
      "type": "function"
    },
    {
      "constant": false,
      "inputs": [
        {
          "name": "keys",
          "type": "bytes32[100]"
        },
        {
          "name": "values",
          "type": "bytes32[100]"
        }
      ],
      "name": "savePassword",
      "outputs": [
        {
          "name": "",
          "type": "bool"
        }
      ],
      "payable": false,
      "stateMutability": "nonpayable",
      "type": "function"
    },
    {
      "constant": false,
      "inputs": [
        {
          "name": "locs",
          "type": "address[]"
        }
      ],
      "name": "addLocations",
      "outputs": [],
      "payable": false,
      "stateMutability": "nonpayable",
      "type": "function"
    }
  ],
  "bytecode": "0x6060604052336000806101000a81548173ffffffffffffffffffffffffffffffffffffffff021916908373ffffffffffffffffffffffffffffffffffffffff160217905550610cf9806100536000396000f30060606040526004361061008e576000357c0100000000000000000000000000000000000000000000000000000000900463ffffffff1680633d9757d6146100905780633f0682121461011c57806341c0e1b5146101765780634ec0b53a1461018b578063879281c4146101dd5780638da5cb5b146102205780639c0d252514610275578063f2fde38b146102c7575b005b341561009b57600080fd5b61010260048080610c80019060648060200260405190810160405280929190826064602002808284378201915050505050919080610c8001906064806020026040519081016040528092919082606460200280828437820191505050505091905050610300565b604051808215151515815260200191505060405180910390f35b341561012757600080fd5b6101746004808035906020019082018035906020019080806020026020016040519081016040528093929190818152602001838360200280828437820191505050505050919050506104aa565b005b341561018157600080fd5b610189610592565b005b6101bf6004808035600019169060200190919080356000191690602001909190803560001916906020019091905050610623565b60405180826000191660001916815260200191505060405180910390f35b34156101e857600080fd5b6102026004808035600019169060200190919050506108b1565b60405180826000191660001916815260200191505060405180910390f35b341561022b57600080fd5b6102336108fd565b604051808273ffffffffffffffffffffffffffffffffffffffff1673ffffffffffffffffffffffffffffffffffffffff16815260200191505060405180910390f35b6102a96004808035600019169060200190919080356000191690602001909190803560001916906020019091905050610922565b60405180826000191660001916815260200191505060405180910390f35b34156102d257600080fd5b6102fe600480803573ffffffffffffffffffffffffffffffffffffffff16906020019091905050610bac565b005b6000806000600102600160003373ffffffffffffffffffffffffffffffffffffffff1673ffffffffffffffffffffffffffffffffffffffff16815260200190815260200160002060000154600019161415151561035c57600080fd5b600160003373ffffffffffffffffffffffffffffffffffffffff1673ffffffffffffffffffffffffffffffffffffffff16815260200190815260200160002060030160009054906101000a900473ffffffffffffffffffffffffffffffffffffffff1690508073ffffffffffffffffffffffffffffffffffffffff1663e01a425185856040518363ffffffff167c01000000000000000000000000000000000000000000000000000000000281526004018083606460200280838360005b8381101561043557808201518184015260208101905061041a565b5050505090500182606460200280838360005b83811015610463578082015181840152602081019050610448565b5050505090500192505050602060405180830381600087803b151561048757600080fd5b5af1151561049457600080fd5b5050506040518051905050600191505092915050565b60008090505b815181101561058e57600073ffffffffffffffffffffffffffffffffffffffff1682828151811015156104df57fe5b9060200190602002015173ffffffffffffffffffffffffffffffffffffffff16141515610581576002805480600101828161051a9190610c7c565b91600052602060002090016000848481518110151561053557fe5b90602001906020020151909190916101000a81548173ffffffffffffffffffffffffffffffffffffffff021916908373ffffffffffffffffffffffffffffffffffffffff160217905550505b80806001019150506104b0565b5050565b6000809054906101000a900473ffffffffffffffffffffffffffffffffffffffff1673ffffffffffffffffffffffffffffffffffffffff163373ffffffffffffffffffffffffffffffffffffffff161415610621576000809054906101000a900473ffffffffffffffffffffffffffffffffffffffff1673ffffffffffffffffffffffffffffffffffffffff16ff5b565b6000838383600060010283600019161415151561063f57600080fd5b600060010282600019161415151561065657600080fd5b600060010281600019161415151561066d57600080fd5b6000600102600160003373ffffffffffffffffffffffffffffffffffffffff1673ffffffffffffffffffffffffffffffffffffffff16815260200190815260200160002060000154600019161415156106c557600080fd5b86600160003373ffffffffffffffffffffffffffffffffffffffff1673ffffffffffffffffffffffffffffffffffffffff168152602001908152602001600020600001816000191690555084600160003373ffffffffffffffffffffffffffffffffffffffff1673ffffffffffffffffffffffffffffffffffffffff168152602001908152602001600020600201816000191690555085600160003373ffffffffffffffffffffffffffffffffffffffff1673ffffffffffffffffffffffffffffffffffffffff1681526020019081526020016000206001018160001916905550600260008154811015156107b657fe5b906000526020600020900160009054906101000a900473ffffffffffffffffffffffffffffffffffffffff16600160003373ffffffffffffffffffffffffffffffffffffffff1673ffffffffffffffffffffffffffffffffffffffff16815260200190815260200160002060030160006101000a81548173ffffffffffffffffffffffffffffffffffffffff021916908373ffffffffffffffffffffffffffffffffffffffff160217905550600160003373ffffffffffffffffffffffffffffffffffffffff1673ffffffffffffffffffffffffffffffffffffffff1681526020019081526020016000206000015493505050509392505050565b6000600160003373ffffffffffffffffffffffffffffffffffffffff1673ffffffffffffffffffffffffffffffffffffffff168152602001908152602001600020600001549050919050565b6000809054906101000a900473ffffffffffffffffffffffffffffffffffffffff1681565b6000838383600060010283600019161415151561093e57600080fd5b600060010282600019161415151561095557600080fd5b600060010281600019161415151561096c57600080fd5b6000600102600160003373ffffffffffffffffffffffffffffffffffffffff1673ffffffffffffffffffffffffffffffffffffffff1681526020019081526020016000206000015460001916141515156109c557600080fd5b6000600102600160003373ffffffffffffffffffffffffffffffffffffffff1673ffffffffffffffffffffffffffffffffffffffff1681526020019081526020016000206000015460001916141515610a645786600160003373ffffffffffffffffffffffffffffffffffffffff1673ffffffffffffffffffffffffffffffffffffffff16815260200190815260200160002060000181600019169055505b6000600102600160003373ffffffffffffffffffffffffffffffffffffffff1673ffffffffffffffffffffffffffffffffffffffff1681526020019081526020016000206001015460001916141515610b035785600160003373ffffffffffffffffffffffffffffffffffffffff1673ffffffffffffffffffffffffffffffffffffffff16815260200190815260200160002060010181600019169055505b6000600102600160003373ffffffffffffffffffffffffffffffffffffffff1673ffffffffffffffffffffffffffffffffffffffff1681526020019081526020016000206002015460001916141515610ba25784600160003373ffffffffffffffffffffffffffffffffffffffff1673ffffffffffffffffffffffffffffffffffffffff16815260200190815260200160002060020181600019169055505b5050509392505050565b6000809054906101000a900473ffffffffffffffffffffffffffffffffffffffff1673ffffffffffffffffffffffffffffffffffffffff163373ffffffffffffffffffffffffffffffffffffffff161415610c7957600073ffffffffffffffffffffffffffffffffffffffff168173ffffffffffffffffffffffffffffffffffffffff16141515610c7857806000806101000a81548173ffffffffffffffffffffffffffffffffffffffff021916908373ffffffffffffffffffffffffffffffffffffffff1602179055505b5b50565b815481835581811511610ca357818360005260206000209182019101610ca29190610ca8565b5b505050565b610cca91905b80821115610cc6576000816000905550600101610cae565b5090565b905600a165627a7a72305820e5cf630daaf3e6d578fab0e8e80af8c5fc7c97b888986e7e4927346af8c058610029",
  "source": "pragma solidity ^0.4.2;\n\nimport \"./common/Killable.sol\";\nimport \"./ContentLocator.sol\";\n\ncontract Factory is Killable {\n    struct User {\n        bytes32 name;\n        bytes32 email;\n        bytes32 password;\n        address location;\n    }\n\n    mapping (address => User) private users;\n    address[] private locations;\n\n    modifier validCreds(bytes32 name, bytes32 email, bytes32 password) {\n        // Must be valid credentials\n\n        require(!(name == 0x0));\n        require(!(email == 0x0));\n        require(!(password == 0x0));\n        _;\n    }\n\n    modifier onlyExistingUser {\n        // Check if user exists or terminate\n\n        require(!(users[msg.sender].name == 0x0));\n        _;\n    }\n\n    function signUp(bytes32 name, bytes32 email, bytes32 password)\n    public\n    payable\n    validCreds(name, email, password)\n    returns (bytes32) {\n        //Add users name to the hash map\n\n        require(users[msg.sender].name == 0x0);\n\n        users[msg.sender].name = name;\n        users[msg.sender].password = password;\n        users[msg.sender].email = email;\n\n        //Pick a random location for managing this user\n        users[msg.sender].location = locations[0];\n\n        return (users[msg.sender].name);        \n    }\n\n    function update(bytes32 name, bytes32 email, bytes32 password)\n    public\n    payable\n    validCreds(name, email, password)\n    onlyExistingUser\n    returns (bytes32) {\n        // Update user credentials\n\n        if (users[msg.sender].name != 0x0) {\n            users[msg.sender].name = name;\n        }\n\n        if (users[msg.sender].email != 0x0) {\n            users[msg.sender].email = email;\n        }\n\n        if (users[msg.sender].password != 0x0) {\n            users[msg.sender].password = password;\n        }\n    }\n\n    function login(bytes32 password) constant\n    public\n    returns (bytes32) {\n\n        return (users[msg.sender].name);\n    }\n\n    function savePassword(bytes32[100] keys, bytes32[100] values) \n    public\n    onlyExistingUser \n    returns (bool) {\n        ContentLocator locator = ContentLocator(users[msg.sender].location);\n        locator.shardContent(keys, values);\n        return true;\n    }\n\n    function addLocations(address[] locs) public {\n        //Copy the input ContentStores to the locations list\n\n        for (uint i = 0; i < locs.length; i++) {\n            if(locs[i]!=address(0)) {\n                locations.push(locs[i]);\n            }\n        }\n    }\n\n    //Fallback function for loading with ether\n    function() public payable {\n\n    }\n}\n",
  "sourcePath": "/home/sharath/Projectz/Blockchain/Passwor-D-app/contracts/Factory.sol",
  "compiler": {
    "name": "solc",
    "version": "0.4.21+commit.dfe3193c.Emscripten.clang"
  },
  "schemaVersion": "2.0.0",
  "updatedAt": "2018-04-20T20:41:24.936Z"
}