{
  "contractName": "Factory",
  "abi": [
    {
      "constant": false,
      "inputs": [],
      "name": "kill",
      "outputs": [],
      "payable": false,
      "stateMutability": "nonpayable",
      "type": "function"
    },
    {
      "constant": true,
      "inputs": [],
      "name": "owner",
      "outputs": [
        {
          "name": "",
          "type": "address"
        }
      ],
      "payable": false,
      "stateMutability": "view",
      "type": "function"
    },
    {
      "constant": false,
      "inputs": [
        {
          "name": "newOwner",
          "type": "address"
        }
      ],
      "name": "transferOwnership",
      "outputs": [],
      "payable": false,
      "stateMutability": "nonpayable",
      "type": "function"
    },
    {
      "constant": false,
      "inputs": [
        {
          "name": "name",
          "type": "bytes32"
        },
        {
          "name": "email",
          "type": "bytes32"
        },
        {
          "name": "password",
          "type": "bytes32"
        }
      ],
      "name": "signUp",
      "outputs": [
        {
          "name": "",
          "type": "bytes32"
        }
      ],
      "payable": true,
      "stateMutability": "payable",
      "type": "function"
    },
    {
      "constant": false,
      "inputs": [
        {
          "name": "name",
          "type": "bytes32"
        },
        {
          "name": "email",
          "type": "bytes32"
        },
        {
          "name": "password",
          "type": "bytes32"
        }
      ],
      "name": "update",
      "outputs": [
        {
          "name": "",
          "type": "bytes32"
        }
      ],
      "payable": true,
      "stateMutability": "payable",
      "type": "function"
    },
    {
      "constant": true,
      "inputs": [
        {
          "name": "password",
          "type": "bytes32"
        }
      ],
      "name": "login",
      "outputs": [
        {
          "name": "",
          "type": "bytes32"
        }
      ],
      "payable": false,
      "stateMutability": "view",
      "type": "function"
    }
  ],
  "bytecode": "0x6060604052336000806101000a81548173ffffffffffffffffffffffffffffffffffffffff021916908373ffffffffffffffffffffffffffffffffffffffff160217905550610861806100536000396000f300606060405260043610610078576000357c0100000000000000000000000000000000000000000000000000000000900463ffffffff16806341c0e1b51461007d5780634ec0b53a14610092578063879281c4146100e45780638da5cb5b146101275780639c0d25251461017c578063f2fde38b146101ce575b600080fd5b341561008857600080fd5b610090610207565b005b6100c66004808035600019169060200190919080356000191690602001909190803560001916906020019091905050610298565b60405180826000191660001916815260200191505060405180910390f35b34156100ef57600080fd5b61010960048080356000191690602001909190505061046a565b60405180826000191660001916815260200191505060405180910390f35b341561013257600080fd5b61013a6104b6565b604051808273ffffffffffffffffffffffffffffffffffffffff1673ffffffffffffffffffffffffffffffffffffffff16815260200191505060405180910390f35b6101b060048080356000191690602001909190803560001916906020019091908035600019169060200190919050506104db565b60405180826000191660001916815260200191505060405180910390f35b34156101d957600080fd5b610205600480803573ffffffffffffffffffffffffffffffffffffffff16906020019091905050610765565b005b6000809054906101000a900473ffffffffffffffffffffffffffffffffffffffff1673ffffffffffffffffffffffffffffffffffffffff163373ffffffffffffffffffffffffffffffffffffffff161415610296576000809054906101000a900473ffffffffffffffffffffffffffffffffffffffff1673ffffffffffffffffffffffffffffffffffffffff16ff5b565b600083838360006001028360001916141515156102b457600080fd5b60006001028260001916141515156102cb57600080fd5b60006001028160001916141515156102e257600080fd5b6000600102600160003373ffffffffffffffffffffffffffffffffffffffff1673ffffffffffffffffffffffffffffffffffffffff168152602001908152602001600020600001546000191614151561033a57600080fd5b86600160003373ffffffffffffffffffffffffffffffffffffffff1673ffffffffffffffffffffffffffffffffffffffff168152602001908152602001600020600001816000191690555084600160003373ffffffffffffffffffffffffffffffffffffffff1673ffffffffffffffffffffffffffffffffffffffff168152602001908152602001600020600201816000191690555085600160003373ffffffffffffffffffffffffffffffffffffffff1673ffffffffffffffffffffffffffffffffffffffff1681526020019081526020016000206001018160001916905550600160003373ffffffffffffffffffffffffffffffffffffffff1673ffffffffffffffffffffffffffffffffffffffff1681526020019081526020016000206000015493505050509392505050565b6000600160003373ffffffffffffffffffffffffffffffffffffffff1673ffffffffffffffffffffffffffffffffffffffff168152602001908152602001600020600001549050919050565b6000809054906101000a900473ffffffffffffffffffffffffffffffffffffffff1681565b600083838360006001028360001916141515156104f757600080fd5b600060010282600019161415151561050e57600080fd5b600060010281600019161415151561052557600080fd5b6000600102600160003373ffffffffffffffffffffffffffffffffffffffff1673ffffffffffffffffffffffffffffffffffffffff16815260200190815260200160002060000154600019161415151561057e57600080fd5b6000600102600160003373ffffffffffffffffffffffffffffffffffffffff1673ffffffffffffffffffffffffffffffffffffffff168152602001908152602001600020600001546000191614151561061d5786600160003373ffffffffffffffffffffffffffffffffffffffff1673ffffffffffffffffffffffffffffffffffffffff16815260200190815260200160002060000181600019169055505b6000600102600160003373ffffffffffffffffffffffffffffffffffffffff1673ffffffffffffffffffffffffffffffffffffffff16815260200190815260200160002060010154600019161415156106bc5785600160003373ffffffffffffffffffffffffffffffffffffffff1673ffffffffffffffffffffffffffffffffffffffff16815260200190815260200160002060010181600019169055505b6000600102600160003373ffffffffffffffffffffffffffffffffffffffff1673ffffffffffffffffffffffffffffffffffffffff168152602001908152602001600020600201546000191614151561075b5784600160003373ffffffffffffffffffffffffffffffffffffffff1673ffffffffffffffffffffffffffffffffffffffff16815260200190815260200160002060020181600019169055505b5050509392505050565b6000809054906101000a900473ffffffffffffffffffffffffffffffffffffffff1673ffffffffffffffffffffffffffffffffffffffff163373ffffffffffffffffffffffffffffffffffffffff16141561083257600073ffffffffffffffffffffffffffffffffffffffff168173ffffffffffffffffffffffffffffffffffffffff1614151561083157806000806101000a81548173ffffffffffffffffffffffffffffffffffffffff021916908373ffffffffffffffffffffffffffffffffffffffff1602179055505b5b505600a165627a7a723058201bf4fa01426f28bcd4d44eff350ab9b9e311410472a2aaf42242293359c9e4fa0029",
  "source": "pragma solidity ^0.4.2;\n\nimport \"./common/Killable.sol\";\n\ncontract Factory is Killable {\n    struct User {\n        bytes32 name;\n        bytes32 email;\n        bytes32 password;\n    }\n\n    mapping (address => User) private users;\n\n    modifier validCreds(bytes32 name, bytes32 email, bytes32 password) {\n        // Must be valid credentials\n\n        require(!(name == 0x0));\n        require(!(email == 0x0));\n        require(!(password == 0x0));\n        _;\n    }\n\n    modifier onlyExistingUser {\n        // Check if user exists or terminate\n\n        require(!(users[msg.sender].name == 0x0));\n        _;\n    }\n\n    function signUp(bytes32 name, bytes32 email, bytes32 password)\n    public\n    payable\n    validCreds(name, email, password)\n    returns (bytes32) {\n        //Add users name to the hash map\n\n        require(users[msg.sender].name == 0x0);\n\n        users[msg.sender].name = name;\n        users[msg.sender].password = password;\n        users[msg.sender].email = email;\n\n        return (users[msg.sender].name);        \n    }\n\n    function update(bytes32 name, bytes32 email, bytes32 password)\n    public\n    payable\n    validCreds(name, email, password)\n    onlyExistingUser\n    returns (bytes32) {\n        // Update user credentials\n\n        if (users[msg.sender].name != 0x0) {\n            users[msg.sender].name = name;\n        }\n\n        if (users[msg.sender].email != 0x0) {\n            users[msg.sender].email = email;\n        }\n\n        if (users[msg.sender].password != 0x0) {\n            users[msg.sender].password = password;\n        }\n    }\n\n    function login(bytes32 password) constant\n    public\n    returns (bytes32) {\n\n        return (users[msg.sender].name);\n    }\n}\n",
  "sourcePath": "/home/sharath/Projectz/Blockchain/Passwor-D-app/contracts/Factory.sol",
  "compiler": {
    "name": "solc",
    "version": "0.4.21+commit.dfe3193c.Emscripten.clang"
  },
  "schemaVersion": "2.0.0",
  "updatedAt": "2018-04-14T21:15:10.486Z"
}